:100000004CC066C065C064C063C062C061C060C0EF
:100010005FC05EC05DC05CC05BC05BC059C058C003
:1000200057C056C055C054C053C0D1C2D2C2D3C2AB
:10003000D4C2D5C2D6C2D8C2DAC2DCC2DEC2E0C2E5
:10004000E2C2E4C2E6C2E8C2EAC2ECC2EFC2FF41C9
:100050005D41FF003E223E000E3B173B0E0C12247A
:10006000120C0A0055000A08142A1408074971499D
:100070000722146B14223636083636061569150623
:100080000F1A3E1A0F6C1A6F1A6C7D5A1E5A7D4E4B
:100090007B0F7B4E3D667C663D0011241FBECFE585
:1000A000D1E0DEBFCDBF10E0A0E6B0E0ECEBF7E0C2
:1000B00002C005900D92A036B107D9F710E0A0E676
:1000C000B0E001C01D92A639B107E1F737D374C380
:1000D00097CF1F920F920FB60F9211242F933F9339
:1000E0005F936F937F938F939F93AF93BF9381E0C1
:1000F00080938800809191008F5F8093910085307C
:1001000010F0109291002091600030916100609198
:10011000890070918A00C90128D32F5F3F4F309327
:10012000610020936000009719F481E080936400DF
:10013000BF91AF919F918F917F916F915F913F910F
:100140002F910F900FBE0F901F901895089581E684
:1001500082BB81E08BBB86E188BB919A0895823097
:100160009105A1F08330910534F4009759F0813066
:10017000910589F409C08330910551F084309105CF
:1001800051F408C091980895D8980895C498089596
:10019000C1980895C298089583309105E9F084309C
:1001A00091054CF48130910589F08230910584F4F9
:1001B0000097B1F008958530910581F08530910563
:1001C0004CF08630910569F4C69A0895939A089583
:1001D000929A0895D99A0895C39A0895C59A089550
:1001E000949A0895CF93DF93B2DF8091910090E0CD
:1001F000B6DFC0E0D0E08091910090E067E070E071
:10020000A2D2FC01EC0FFD1FEB59FF4F8081882328
:1002100011F0CE01C1DF2196C730D10561F71092F0
:100220008800DF91CF910895E5E6F0E01192168203
:100230001586148A138E80E0EC36F807B9F7089516
:10024000CF93DF93EC01F0DFCE0165E070E07BD26D
:10025000FC01E25BFF4F20E030E041E0A491B0E020
:10026000C90167E070E06FD2EC01CB59DF4F87E046
:1002700090E0A0FD488301972196009719F0B5956D
:10028000A795F7CF2F5F3F4F31962530310531F7D6
:10029000DF91CF910895CF92DF92EF92FF920F936B
:1002A0001F93CF93DF938CE291E090938A00809329
:1002B0008900C0909400D090950020E030E002E0EA
:1002C00010E010C0CF018E0D9F1DB8014ED2888363
:1002D00031962796E530F105A9F72F5F3F4F27307C
:1002E000310549F0E901CB59DF4FE0E0F0E0790159
:1002F000EC0CFD1CE7CFDF91CF911F910F91FF9088
:10030000EF90DF90CF90089584E190E090938A0081
:100310008093890089DF2091940030919500C90174
:1003200063E170E022D2873091052CF48B599F4F06
:1003300041E0FC014083C9016BE070E016D28730D8
:1003400091052CF48B599F4F41E0FC014687C90170
:1003500061E170E00AD2873091052CF48B599F4FF0
:1003600021E0FC01248F08958EE190E090938A00B3
:10037000809389008091940080FF03C080E090E02A
:1003800002C081E090E05CDF089588E290E0909305
:100390008A008093890080919400909195006AE092
:1003A00070E0E3D18130910569F0823091051CF451
:1003B000009751F008958230910531F08330910516
:1003C00041F406C031DF089583E090E039DF0895FD
:1003D0002BDF0895AF92BF92CF92DF92EF92FF9200
:1003E0000F931F93CF93DF9388E290E090938A005E
:1003F0008093890019DFE0919400F0919500A3E0CB
:10040000AA2EB12CCF01B501B0D126E030E07901A0
:10041000E81AF90A85E690E0E80EF91E41E0D701F6
:100420004C938F010F5F1F4F72E0C72ED12CC80174
:10043000B6019BD1E901C81BD90BCB59DF4F4F83C4
:10044000CF01B60192D1D901A81BB90BAB59BF4F4F
:100450001E964C934D8BC801B50187D1D901A81BBD
:10046000B90BAB59BF4F5C964C93C5E0D0E0C801C7
:10047000BE017BD1D901A81BB90BAB59BF4F179651
:100480004C93D7011E964C9362E0E62EF12CEE0EB3
:10049000FF1EC701BE0169D1D901A81BB90BAB5919
:1004A000BF4F55964C93CF010496C4E0D0E0BE01F7
:1004B0005CD1D901A81BB90BAB59BF4F4C93C801F4
:1004C000BE0153D1D901A81BB90BAB59BF4F179629
:1004D0004C93CF01BE0149D1D901A81BB90BAB592F
:1004E000BF4F1E964C93CF010396BE013ED1D9015A
:1004F000A81BB90BAB59BF4F55964C93C701BE0112
:1005000034D1D901A81BB90BAB59BF4F5C964C93A2
:100510005C97CF0163E170E028D18730910534F416
:10052000281B390B2B593F4FD9014C9326E030E063
:10053000CF01B9011AD1D901A81BB90BAB59BF4FD3
:1005400041E017964C93CF0167E070E00ED1D901DE
:10055000A81BB90BAB59BF4F1E964C93C701B901ED
:1005600004D1D901A81BB90BAB59BF4F55964C9379
:100570005597CF0161E170E0F8D08730910534F4F0
:10058000281B390B2B593F4FF901448FDF91CF9135
:100590001F910F91FF90EF90DF90CF90BF90AF90A1
:1005A0000895809194009091950001969093950004
:1005B0008093940010926400E0918F00F09190007D
:1005C0003197E231F105A8F5EB5EFF4F099463DE48
:1005D0000895CADE0895D9DE089596DE0895FADEFC
:1005E000089582E090E020C083E090E01DC084E0A8
:1005F00090E01AC085E090E017C086E090E014C05B
:1006000087E090E011C088E090E00EC089E090E0C3
:100610000BC08AE090E008C08BE090E005C08CE061
:1006200090E002C08DE090E00BDE08958EE090E057
:1006300007DE0895809B02C086990AC080918B00D6
:1006400090918C00019690938C0080938B0004C055
:1006500010928C0010928B0085990AC080916200E4
:10066000909163000196909363008093620004C0B0
:10067000109263001092620080916200909163007A
:100680008A30910561F480918F00909190000197DC
:100690009093900080938F0081E08093640080911C
:1006A0008B0090918C008A30910561F480918F00CD
:1006B0009091900001969093900080938F0081E03C
:1006C0008093640080918F00909190008331910518
:1006D00034F081E090E09093900080938F008091BF
:1006E0008F00909190001816190634F082E190E086
:1006F0009093900080938F00089583E08ABB8EE7EB
:1007000087BB8EE181BB82E080BF84E083BF88E24B
:1007100086BF81E089BF789486E090E09093900056
:1007200080938F0008958091640081113ADF809159
:1007300088008823C1F356DD7DDFF5CFDEDFF3DFF0
:1007400080E090E008955527002480FF02C0060E47
:10075000571F660F771F6115710521F096958795D4
:10076000009799F7952F802D089597FB092E07265E
:100770000AD077FD04D00CD006D000201AF4709572
:1007800061957F4F0895F6F7909581959F4F089555
:10079000AA1BBB1B51E107C0AA1FBB1FA617B707A7
:1007A00010F0A61BB70B881F991F5A95A9F78095C3
:0C07B0009095BC01CD010895F894FFCF96
:00000001FF
